:100000006F00807A0000000032010000340100001F
:1000100000000000000000000000000000000000E0
:1000200000000000000000000000000000000000D0
:10003000A607000000000000A60700000000000066
:10004000A6070000A6070000A6070000A6070000FC
:10005000A6070000A6070000A6070000A6070000EC
:10006000A6070000A6070000A6070000A6070000DC
:10007000A6070000A6070000A6070000A6070000CC
:10008000A6070000A6070000A6070000A6070000BC
:10009000A6070000A60700003601000000000000CF
:1000A000511126C022C206C4828282441244A24058
:1000B00031018280634E050263C305042E86AA8542
:1000C0007D5515C285466378B6006356C0000606A6
:1000D0008606E36CB6FE014563E4C500918D558D3F
:1000E00085820582F5FA82808682C93F2E858282CA
:1000F0003305A04063D70500B305B040C1B7B305D1
:10010000B0408682653F3305A0408282868263C705
:100110000500634905005D372E858282B305B04036
:10012000E35B05FE3305A040513F3305B0408282BA
:10013000000001A001A0854537050040EF00D00A6E
:1001400085476317F502854537050040EF00500BE2
:10015000B707002003C787019387870101CF0147B5
:100160000146930500083715014098A3EF00A074DD
:100170007300203005470546EDB7EFF27FF23111ED
:100180002E84AA8485450545EF00A07C2C00370508
:100190000040648660842315010023170100EF00EE
:1001A000207D0546854537050040EF00D0029307C6
:1001B00060527C8095475C810A8585473EC2EF008E
:1001C000C070854537050040EF00607F5101F1BDEB
:1001D000EFF21FED111185451305000202C802CA96
:1001E00002CCEF00207585454145EF00A0748545A0
:1001F0001145EF0020740D4493070008C1440C081A
:1002000037150140FC8026CC22CAEF00606226CC64
:10021000B714014089460C0813850480F48036C663
:1002200022CAEF00E0609147FC803EC40C08C14741
:10023000138504803ECC22CAEF00805F13060002C3
:10024000C1470C0837150140F08032C23ECC22CAAB
:10025000EF00005E13070004C1470C08371501408A
:10026000F8803AC03ECC22CAEF00805C1246C147FB
:100270000C0813850440F0803ECC22CAEF00405B9E
:100280000247C1470C0813850440F8803ECC22CABF
:10029000EF00005AA2470C0813850440FC803EC2C0
:1002A000C1473ECC22CAEF00A0582147C1470C08E5
:1002B00013850440F8803AC03ECC22CA952BC14732
:1002C000FC800C08C147138504403ECC22CA8D2314
:1002D0000546930780040C0837150140F0803ECC9A
:1002E00022CAB923B246930780040C08371501408F
:1002F000F4803ECC22CA2D2B92470C0837150140C2
:10030000FC80930780043ECC22CA1D23024793073A
:1003100080040C0837150140F8803ECC22CA092B16
:100320004147930780040C0837150140F8803ECC04
:1003300022CAFD291385048001468945AD2B13850A
:10034000048001469145852B1385044001469305A1
:100350000002952313850440014693050004A12B58
:1003600001469305000237150140B123014693056C
:10037000000437150140812313850440014691454F
:100380001D2B138504400146A14535230146C14577
:10039000138504400D23710109BBEFF27FD0854521
:1003A000371501402123054611C10146371501408B
:1003B0009305000213050540FD29894537150140C5
:1003C000F521054611C1014637150140930500048A
:1003D00013050540CD21914537150140C12905463A
:1003E00011C101469305000237150140E921A145DD
:1003F000371501406529054611C1014693050004E2
:10040000371501404D2955B1EFF29FC9371401400E
:100410000146894513050480792991451305048017
:100420000146512985453715014049210DE589458A
:1004300037150140A52905E10546914513050440FE
:100440009D290546A14513050440B5210546C14532
:10045000130504408D2185453715014081291DE58F
:10046000894537150140992115C1371401400546CA
:1004700091451305044081210146A145130504401F
:100480001D290146C1451305044035218545371511
:10049000014029291DC5894537150140012915E16C
:1004A00037140140014691451305044029210546B2
:1004B000A1451305044001210146C145130504402F
:1004C000DD2E854537150140D5261DC589453715D3
:1004D0000140E92E15C1371401400146914513052D
:1004E0000440D12E0146A14513050440E9260146EA
:1004F000C14513050440C1264DBEEFF27FBA9145B8
:1005000037150140652629E1A14537150140792EAF
:1005100005ED371401400546914513050440612E51
:100520000546A1451305044079260546C145130536
:10053000044051260546894513050480AD2E054625
:10054000914513050480852E914537150140B92E3C
:1005500029E1A14537150140912E05CD3714014001
:100560000546914513050440B9260146A1451305EA
:10057000044091260146C145130504402D2E054631
:10058000894513050480052E014691451305048015
:100590001D26914537150140112E29C1A14537155A
:1005A0000140292605ED3714014001469145130508
:1005B000044011260546A14513050440ED2C0146D3
:1005C000C14513050440C52C014689451305048027
:1005D000DD240546914513050480F12C914537151E
:1005E0000140E92429C1A14537150140C12405CDA9
:1005F0003714014001469145130504406D2C014616
:10060000A14513050440452C0146C145130504408E
:100610005D240146894513050480712C01469145EE
:1006200013050480492C51B4EFF29FA70545492CCE
:100630002922E92E713E99659385F5DB1305703EFD
:100640002D3EC14537150140952401C5B9336D3B99
:10065000CDBFA1335D35F5B7EFF29FA4371402404B
:100660001C403707FFF8414593E717001CC05C406A
:10067000F98F5CC01C403707F7FE7D17F98F1CC04F
:100680001C403707FCFF7D17F98F1CC05C40417789
:100690007D17F98F5CC0B7079F001CC459241C4C00
:1006A00093E707021CCCB717014003A707409386C6
:1006B00007401377F7F023A0E74003A7074013672D
:1006C000070823A0E74089479CCAB7F7FF1F03C567
:1006D000477D9307F00F6304F5007D899924B727C0
:1006E00002409843C176FD16719B98C398431367E7
:1006F000170098C3B7170240D843D8C3D843758FA3
:10070000D8C3D843B7060001D8C39843558F98C3C0
:10071000984393166700E3DD06FED843B716024000
:10072000719BD8C3D84313672700D8C32147DC4245
:10073000B18BE39EE7FE6FF05F97EFF27F9637177E
:1007400002405C43370400209146B18B130404013E
:100750006385D700A1466382D704B7376E019387BC
:1007600007601CC0B7160240DC420840918313F7B3
:10077000F700B707002093870700BA978C23DC4265
:1007800093F5F50F93F707083357B50081E7EFF0BE
:10079000FF922A8718C06FF05F915C43B777DC0245
:1007A000938707C07DBF01A09701002093810107B7
:1007B000138181FE170500001305C5289705002049
:1007C00093854584170600201306468563FAC50005
:1007D0008322050023A0550011059105E3EAC5FE1B
:1007E00017050020130585839385C1806377B500C5
:1007F000232005001105E36DB5FEB72200009382AA
:100800000288739002308D427390428097F2FFFF0E
:100810009382427F93E2320073905230EFF0DFE335
:1008200097020000938282E07390123473002030AC
:10083000944593F7060193F2F60081C7DC41B3E2D9
:10084000F20083D3050093F7F30FA5C3032305003C
:10085000611122C226C081471304800293048004E0
:1008600005473316F70033F7C3006312E60293958A
:1008700027003D473317B7001347F7FF337367006F
:10088000B395B20033E36500639D860050C98507C8
:100890002147E397E7FC12442320650082442101AD
:1008A0008280E39696FE10C9DDB7828008456D8D83
:1008B0003335A000828019C20CC982804CC9828065
:1008C000B707002023AEA7008280B707002083A6C9
:1008D000C701854718216390F6021C31639CD7023B
:1008E0003C219A0793E707F8B7E600E093F7F70F84
:1008F000BA962380F6408546935757003397E60013
:10090000544189CE938707048A07B7E600E0B6977B
:1009100098C38280EDF33C219A07F9B793870706C5
:10092000E5B7371702401C430E0593F777F05D8D4E
:1009300008C3828099C5371702401C4F5D8D08CFD0
:100940008280B7170240984F1345F5FF798D88CF05
:10095000828099C5371702405C4F5D8D48CF8280F9
:10096000B7170240D84F1345F5FF798DC8CF828065
:100970001E2137370140130707C0C207C183630632
:10098000E500370700406316E500BA2193F7F7F852
:10099000D98FFA2193F7F7CFC207C183D98F1EA150
:1009A000DE215EB59E211EB5B7370140938707C093
:1009B0006314F5009C251EB985475EA982801E211F
:1009C00089C593E717001EA18280C207C183F99BE6
:1009D000C207C183CDBF5E2501C6DD8D4EA58280D5
:1009E00093C5F5FFFD8DDDBF1E294A25ED8F42051C
:1009F000418189C76D8D3335A00082800145828099
:100A000093C5F5FFC205C1810EA98280EFF24FE9BF
:100A1000B707002003A50701B7157A0093850520C5
:100A2000EFF0CFE91375F50F2385A18093175500DB
:100A3000898F8A073E950E052394A1806FF0EFE61B
:100A4000010203040506070801020304050607085E
:080A5000006CDC020000000054
:00000001FF
